{
  "_format": "hh-sol-artifact-1",
  "contractName": "Deal",
  "sourceName": "contracts/Deal.sol",
  "abi": [
    {
      "inputs": [],
      "name": "EActionUnauthorized",
      "type": "error"
    },
    {
      "inputs": [],
      "name": "EOfferEmpty",
      "type": "error"
    },
    {
      "inputs": [],
      "name": "EOfferExpired",
      "type": "error"
    },
    {
      "inputs": [],
      "name": "EOfferInvalid",
      "type": "error"
    },
    {
      "inputs": [],
      "name": "ERoomAlreadyJoined",
      "type": "error"
    },
    {
      "inputs": [],
      "name": "ERoomDoesNotExist",
      "type": "error"
    },
    {
      "inputs": [],
      "name": "ERoomExists",
      "type": "error"
    },
    {
      "inputs": [],
      "name": "ERoomNotJoined",
      "type": "error"
    },
    {
      "anonymous": false,
      "inputs": [
        {
          "indexed": false,
          "internalType": "address",
          "name": "previousAdmin",
          "type": "address"
        },
        {
          "indexed": false,
          "internalType": "address",
          "name": "newAdmin",
          "type": "address"
        }
      ],
      "name": "AdminChanged",
      "type": "event"
    },
    {
      "anonymous": false,
      "inputs": [
        {
          "indexed": true,
          "internalType": "address",
          "name": "beacon",
          "type": "address"
        }
      ],
      "name": "BeaconUpgraded",
      "type": "event"
    },
    {
      "anonymous": false,
      "inputs": [
        {
          "indexed": false,
          "internalType": "uint8",
          "name": "version",
          "type": "uint8"
        }
      ],
      "name": "Initialized",
      "type": "event"
    },
    {
      "anonymous": false,
      "inputs": [
        {
          "indexed": false,
          "internalType": "bytes32",
          "name": "roomId",
          "type": "bytes32"
        },
        {
          "indexed": false,
          "internalType": "address",
          "name": "party",
          "type": "address"
        }
      ],
      "name": "OfferUpdated",
      "type": "event"
    },
    {
      "anonymous": false,
      "inputs": [
        {
          "indexed": true,
          "internalType": "address",
          "name": "previousOwner",
          "type": "address"
        },
        {
          "indexed": true,
          "internalType": "address",
          "name": "newOwner",
          "type": "address"
        }
      ],
      "name": "OwnershipTransferred",
      "type": "event"
    },
    {
      "anonymous": false,
      "inputs": [
        {
          "indexed": false,
          "internalType": "address",
          "name": "account",
          "type": "address"
        }
      ],
      "name": "Paused",
      "type": "event"
    },
    {
      "anonymous": false,
      "inputs": [
        {
          "indexed": false,
          "internalType": "bytes32",
          "name": "roomId",
          "type": "bytes32"
        }
      ],
      "name": "RoomClosed",
      "type": "event"
    },
    {
      "anonymous": false,
      "inputs": [
        {
          "indexed": false,
          "internalType": "bytes32",
          "name": "roomId",
          "type": "bytes32"
        },
        {
          "indexed": false,
          "internalType": "address",
          "name": "host",
          "type": "address"
        },
        {
          "indexed": false,
          "internalType": "string",
          "name": "metadata",
          "type": "string"
        }
      ],
      "name": "RoomCreated",
      "type": "event"
    },
    {
      "anonymous": false,
      "inputs": [
        {
          "indexed": false,
          "internalType": "bytes32",
          "name": "roomId",
          "type": "bytes32"
        },
        {
          "indexed": false,
          "internalType": "address",
          "name": "party",
          "type": "address"
        }
      ],
      "name": "RoomExited",
      "type": "event"
    },
    {
      "anonymous": false,
      "inputs": [
        {
          "indexed": false,
          "internalType": "bytes32",
          "name": "roomId",
          "type": "bytes32"
        },
        {
          "indexed": false,
          "internalType": "address",
          "name": "counterparty",
          "type": "address"
        }
      ],
      "name": "RoomJoined",
      "type": "event"
    },
    {
      "anonymous": false,
      "inputs": [
        {
          "indexed": false,
          "internalType": "bytes32",
          "name": "recordId",
          "type": "bytes32"
        }
      ],
      "name": "Swapped",
      "type": "event"
    },
    {
      "anonymous": false,
      "inputs": [
        {
          "indexed": false,
          "internalType": "address",
          "name": "account",
          "type": "address"
        }
      ],
      "name": "Unpaused",
      "type": "event"
    },
    {
      "anonymous": false,
      "inputs": [
        {
          "indexed": true,
          "internalType": "address",
          "name": "implementation",
          "type": "address"
        }
      ],
      "name": "Upgraded",
      "type": "event"
    },
    {
      "inputs": [
        {
          "internalType": "bytes32",
          "name": "roomId",
          "type": "bytes32"
        }
      ],
      "name": "closeRoom",
      "outputs": [],
      "stateMutability": "nonpayable",
      "type": "function"
    },
    {
      "inputs": [
        {
          "internalType": "bytes32",
          "name": "roomId",
          "type": "bytes32"
        },
        {
          "components": [
            {
              "internalType": "uint256",
              "name": "offerNonce",
              "type": "uint256"
            },
            {
              "internalType": "contract IERC20Upgradeable[]",
              "name": "erc20Tokens",
              "type": "address[]"
            },
            {
              "internalType": "uint256[]",
              "name": "erc20TokenAmounts",
              "type": "uint256[]"
            },
            {
              "internalType": "contract IERC721Upgradeable[]",
              "name": "erc721Tokens",
              "type": "address[]"
            },
            {
              "internalType": "uint256[]",
              "name": "erc721TokenIds",
              "type": "uint256[]"
            },
            {
              "internalType": "contract IERC1155Upgradeable[]",
              "name": "erc1155Tokens",
              "type": "address[]"
            },
            {
              "internalType": "uint256[][]",
              "name": "erc1155TokenIds",
              "type": "uint256[][]"
            },
            {
              "internalType": "uint256[][]",
              "name": "erc1155TokenAmounts",
              "type": "uint256[][]"
            }
          ],
          "internalType": "struct Deal.Offer",
          "name": "hostOffer",
          "type": "tuple"
        },
        {
          "components": [
            {
              "internalType": "uint256",
              "name": "offerNonce",
              "type": "uint256"
            },
            {
              "internalType": "contract IERC20Upgradeable[]",
              "name": "erc20Tokens",
              "type": "address[]"
            },
            {
              "internalType": "uint256[]",
              "name": "erc20TokenAmounts",
              "type": "uint256[]"
            },
            {
              "internalType": "contract IERC721Upgradeable[]",
              "name": "erc721Tokens",
              "type": "address[]"
            },
            {
              "internalType": "uint256[]",
              "name": "erc721TokenIds",
              "type": "uint256[]"
            },
            {
              "internalType": "contract IERC1155Upgradeable[]",
              "name": "erc1155Tokens",
              "type": "address[]"
            },
            {
              "internalType": "uint256[][]",
              "name": "erc1155TokenIds",
              "type": "uint256[][]"
            },
            {
              "internalType": "uint256[][]",
              "name": "erc1155TokenAmounts",
              "type": "uint256[][]"
            }
          ],
          "internalType": "struct Deal.Offer",
          "name": "idealOffer",
          "type": "tuple"
        },
        {
          "internalType": "string",
          "name": "metadata",
          "type": "string"
        }
      ],
      "name": "createRoom",
      "outputs": [],
      "stateMutability": "nonpayable",
      "type": "function"
    },
    {
      "inputs": [
        {
          "internalType": "bytes32",
          "name": "",
          "type": "bytes32"
        }
      ],
      "name": "dealRecords",
      "outputs": [
        {
          "internalType": "address",
          "name": "host",
          "type": "address"
        },
        {
          "internalType": "address",
          "name": "counterparty",
          "type": "address"
        },
        {
          "internalType": "uint256",
          "name": "nonce",
          "type": "uint256"
        },
        {
          "internalType": "bytes32",
          "name": "roomId",
          "type": "bytes32"
        },
        {
          "components": [
            {
              "internalType": "uint256",
              "name": "offerNonce",
              "type": "uint256"
            },
            {
              "internalType": "contract IERC20Upgradeable[]",
              "name": "erc20Tokens",
              "type": "address[]"
            },
            {
              "internalType": "uint256[]",
              "name": "erc20TokenAmounts",
              "type": "uint256[]"
            },
            {
              "internalType": "contract IERC721Upgradeable[]",
              "name": "erc721Tokens",
              "type": "address[]"
            },
            {
              "internalType": "uint256[]",
              "name": "erc721TokenIds",
              "type": "uint256[]"
            },
            {
              "internalType": "contract IERC1155Upgradeable[]",
              "name": "erc1155Tokens",
              "type": "address[]"
            },
            {
              "internalType": "uint256[][]",
              "name": "erc1155TokenIds",
              "type": "uint256[][]"
            },
            {
              "internalType": "uint256[][]",
              "name": "erc1155TokenAmounts",
              "type": "uint256[][]"
            }
          ],
          "internalType": "struct Deal.Offer",
          "name": "hostOffer",
          "type": "tuple"
        },
        {
          "components": [
            {
              "internalType": "uint256",
              "name": "offerNonce",
              "type": "uint256"
            },
            {
              "internalType": "contract IERC20Upgradeable[]",
              "name": "erc20Tokens",
              "type": "address[]"
            },
            {
              "internalType": "uint256[]",
              "name": "erc20TokenAmounts",
              "type": "uint256[]"
            },
            {
              "internalType": "contract IERC721Upgradeable[]",
              "name": "erc721Tokens",
              "type": "address[]"
            },
            {
              "internalType": "uint256[]",
              "name": "erc721TokenIds",
              "type": "uint256[]"
            },
            {
              "internalType": "contract IERC1155Upgradeable[]",
              "name": "erc1155Tokens",
              "type": "address[]"
            },
            {
              "internalType": "uint256[][]",
              "name": "erc1155TokenIds",
              "type": "uint256[][]"
            },
            {
              "internalType": "uint256[][]",
              "name": "erc1155TokenAmounts",
              "type": "uint256[][]"
            }
          ],
          "internalType": "struct Deal.Offer",
          "name": "counterpartyOffer",
          "type": "tuple"
        }
      ],
      "stateMutability": "view",
      "type": "function"
    },
    {
      "inputs": [
        {
          "internalType": "bytes32",
          "name": "roomId",
          "type": "bytes32"
        }
      ],
      "name": "exitRoom",
      "outputs": [],
      "stateMutability": "nonpayable",
      "type": "function"
    },
    {
      "inputs": [
        {
          "internalType": "bytes32",
          "name": "roomId",
          "type": "bytes32"
        },
        {
          "internalType": "address",
          "name": "party",
          "type": "address"
        }
      ],
      "name": "getOffer",
      "outputs": [
        {
          "components": [
            {
              "internalType": "uint256",
              "name": "offerNonce",
              "type": "uint256"
            },
            {
              "internalType": "contract IERC20Upgradeable[]",
              "name": "erc20Tokens",
              "type": "address[]"
            },
            {
              "internalType": "uint256[]",
              "name": "erc20TokenAmounts",
              "type": "uint256[]"
            },
            {
              "internalType": "contract IERC721Upgradeable[]",
              "name": "erc721Tokens",
              "type": "address[]"
            },
            {
              "internalType": "uint256[]",
              "name": "erc721TokenIds",
              "type": "uint256[]"
            },
            {
              "internalType": "contract IERC1155Upgradeable[]",
              "name": "erc1155Tokens",
              "type": "address[]"
            },
            {
              "internalType": "uint256[][]",
              "name": "erc1155TokenIds",
              "type": "uint256[][]"
            },
            {
              "internalType": "uint256[][]",
              "name": "erc1155TokenAmounts",
              "type": "uint256[][]"
            }
          ],
          "internalType": "struct Deal.Offer",
          "name": "",
          "type": "tuple"
        }
      ],
      "stateMutability": "view",
      "type": "function"
    },
    {
      "inputs": [
        {
          "internalType": "bytes32",
          "name": "roomId",
          "type": "bytes32"
        },
        {
          "internalType": "uint256",
          "name": "nonce",
          "type": "uint256"
        },
        {
          "internalType": "uint256",
          "name": "blockNumber",
          "type": "uint256"
        },
        {
          "internalType": "address",
          "name": "host",
          "type": "address"
        },
        {
          "internalType": "address",
          "name": "counterparty",
          "type": "address"
        }
      ],
      "name": "getRecordId",
      "outputs": [
        {
          "internalType": "bytes32",
          "name": "",
          "type": "bytes32"
        }
      ],
      "stateMutability": "pure",
      "type": "function"
    },
    {
      "inputs": [],
      "name": "initialize",
      "outputs": [],
      "stateMutability": "nonpayable",
      "type": "function"
    },
    {
      "inputs": [
        {
          "internalType": "bytes32",
          "name": "roomId",
          "type": "bytes32"
        },
        {
          "components": [
            {
              "internalType": "uint256",
              "name": "offerNonce",
              "type": "uint256"
            },
            {
              "internalType": "contract IERC20Upgradeable[]",
              "name": "erc20Tokens",
              "type": "address[]"
            },
            {
              "internalType": "uint256[]",
              "name": "erc20TokenAmounts",
              "type": "uint256[]"
            },
            {
              "internalType": "contract IERC721Upgradeable[]",
              "name": "erc721Tokens",
              "type": "address[]"
            },
            {
              "internalType": "uint256[]",
              "name": "erc721TokenIds",
              "type": "uint256[]"
            },
            {
              "internalType": "contract IERC1155Upgradeable[]",
              "name": "erc1155Tokens",
              "type": "address[]"
            },
            {
              "internalType": "uint256[][]",
              "name": "erc1155TokenIds",
              "type": "uint256[][]"
            },
            {
              "internalType": "uint256[][]",
              "name": "erc1155TokenAmounts",
              "type": "uint256[][]"
            }
          ],
          "internalType": "struct Deal.Offer",
          "name": "offer",
          "type": "tuple"
        }
      ],
      "name": "joinRoom",
      "outputs": [],
      "stateMutability": "nonpayable",
      "type": "function"
    },
    {
      "inputs": [],
      "name": "owner",
      "outputs": [
        {
          "internalType": "address",
          "name": "",
          "type": "address"
        }
      ],
      "stateMutability": "view",
      "type": "function"
    },
    {
      "inputs": [],
      "name": "paused",
      "outputs": [
        {
          "internalType": "bool",
          "name": "",
          "type": "bool"
        }
      ],
      "stateMutability": "view",
      "type": "function"
    },
    {
      "inputs": [],
      "name": "proxiableUUID",
      "outputs": [
        {
          "internalType": "bytes32",
          "name": "",
          "type": "bytes32"
        }
      ],
      "stateMutability": "view",
      "type": "function"
    },
    {
      "inputs": [],
      "name": "renounceOwnership",
      "outputs": [],
      "stateMutability": "nonpayable",
      "type": "function"
    },
    {
      "inputs": [
        {
          "internalType": "bytes32",
          "name": "",
          "type": "bytes32"
        }
      ],
      "name": "rooms",
      "outputs": [
        {
          "internalType": "address",
          "name": "host",
          "type": "address"
        },
        {
          "internalType": "uint256",
          "name": "nonce",
          "type": "uint256"
        },
        {
          "components": [
            {
              "internalType": "uint256",
              "name": "offerNonce",
              "type": "uint256"
            },
            {
              "internalType": "contract IERC20Upgradeable[]",
              "name": "erc20Tokens",
              "type": "address[]"
            },
            {
              "internalType": "uint256[]",
              "name": "erc20TokenAmounts",
              "type": "uint256[]"
            },
            {
              "internalType": "contract IERC721Upgradeable[]",
              "name": "erc721Tokens",
              "type": "address[]"
            },
            {
              "internalType": "uint256[]",
              "name": "erc721TokenIds",
              "type": "uint256[]"
            },
            {
              "internalType": "contract IERC1155Upgradeable[]",
              "name": "erc1155Tokens",
              "type": "address[]"
            },
            {
              "internalType": "uint256[][]",
              "name": "erc1155TokenIds",
              "type": "uint256[][]"
            },
            {
              "internalType": "uint256[][]",
              "name": "erc1155TokenAmounts",
              "type": "uint256[][]"
            }
          ],
          "internalType": "struct Deal.Offer",
          "name": "idealOffer",
          "type": "tuple"
        }
      ],
      "stateMutability": "view",
      "type": "function"
    },
    {
      "inputs": [
        {
          "internalType": "bytes32",
          "name": "roomId",
          "type": "bytes32"
        },
        {
          "internalType": "address",
          "name": "counterparty",
          "type": "address"
        }
      ],
      "name": "swap",
      "outputs": [],
      "stateMutability": "nonpayable",
      "type": "function"
    },
    {
      "inputs": [
        {
          "internalType": "address",
          "name": "newOwner",
          "type": "address"
        }
      ],
      "name": "transferOwnership",
      "outputs": [],
      "stateMutability": "nonpayable",
      "type": "function"
    },
    {
      "inputs": [
        {
          "internalType": "bytes32",
          "name": "roomId",
          "type": "bytes32"
        },
        {
          "components": [
            {
              "internalType": "uint256",
              "name": "offerNonce",
              "type": "uint256"
            },
            {
              "internalType": "contract IERC20Upgradeable[]",
              "name": "erc20Tokens",
              "type": "address[]"
            },
            {
              "internalType": "uint256[]",
              "name": "erc20TokenAmounts",
              "type": "uint256[]"
            },
            {
              "internalType": "contract IERC721Upgradeable[]",
              "name": "erc721Tokens",
              "type": "address[]"
            },
            {
              "internalType": "uint256[]",
              "name": "erc721TokenIds",
              "type": "uint256[]"
            },
            {
              "internalType": "contract IERC1155Upgradeable[]",
              "name": "erc1155Tokens",
              "type": "address[]"
            },
            {
              "internalType": "uint256[][]",
              "name": "erc1155TokenIds",
              "type": "uint256[][]"
            },
            {
              "internalType": "uint256[][]",
              "name": "erc1155TokenAmounts",
              "type": "uint256[][]"
            }
          ],
          "internalType": "struct Deal.Offer",
          "name": "offer",
          "type": "tuple"
        }
      ],
      "name": "updateOffer",
      "outputs": [],
      "stateMutability": "nonpayable",
      "type": "function"
    },
    {
      "inputs": [
        {
          "internalType": "address",
          "name": "newImplementation",
          "type": "address"
        }
      ],
      "name": "upgradeTo",
      "outputs": [],
      "stateMutability": "nonpayable",
      "type": "function"
    },
    {
      "inputs": [
        {
          "internalType": "address",
          "name": "newImplementation",
          "type": "address"
        },
        {
          "internalType": "bytes",
          "name": "data",
          "type": "bytes"
        }
      ],
      "name": "upgradeToAndCall",
      "outputs": [],
      "stateMutability": "payable",
      "type": "function"
    }
  ],
  "bytecode": "0x60a06040523060601b60805234801561001757600080fd5b5060805160601c6154aa61005260003960008181610f6401528181610fad0152818161104d0152818161108d01526114ab01526154aa6000f3fe6080604052600436106101095760003560e01c80637c224172116100955780638da5cb5b116100645780638da5cb5b146102bb578063af8b9b18146102e3578063b360700914610303578063d7fbc2e414610323578063f2fde38b1461035257600080fd5b80637c224172146102465780637fa66ca9146102665780638129fc1c1461028657806384f0053a1461029b57600080fd5b80634f1ef286116100dc5780634f1ef286146101ab5780635218bfbb146101be57806352d1902d146101eb5780635c975abb1461020e578063715018a61461023157600080fd5b806308f01a851461010e5780630af9b0a61461014957806334d02fc01461016b5780633659cfe61461018b575b600080fd5b34801561011a57600080fd5b5061012e610129366004614975565b610372565b60405161014096959493929190614d20565b60405180910390f35b34801561015557600080fd5b506101696101643660046149d4565b6109eb565b005b34801561017757600080fd5b50610169610186366004614975565b610e81565b34801561019757600080fd5b506101696101a636600461487b565b610f59565b6101696101b93660046148b3565b611042565b3480156101ca57600080fd5b506101de6101d93660046149a5565b611113565b6040516101409190614efd565b3480156101f757600080fd5b5061020061149e565b604051908152602001610140565b34801561021a57600080fd5b5060655460ff166040519015158152602001610140565b34801561023d57600080fd5b50610169611551565b34801561025257600080fd5b50610200610261366004614ad5565b611565565b34801561027257600080fd5b50610169610281366004614a19565b6115b4565b34801561029257600080fd5b50610169611828565b3480156102a757600080fd5b506101696102b63660046149a5565b611942565b3480156102c757600080fd5b506033546040516001600160a01b039091168152602001610140565b3480156102ef57600080fd5b506101696102fe366004614975565b61199b565b34801561030f57600080fd5b5061016961031e3660046149d4565b6119ee565b34801561032f57600080fd5b5061034361033e366004614975565b611ea5565b60405161014093929190614d79565b34801561035e57600080fd5b5061016961036d36600461487b565b6121ea565b60fc60209081526000918252604091829020805460018201546002830154600384015486516101008101885260048601805482526005870180548a51818b0281018b01909b52808b526001600160a01b039788169a969097169894979396939592949193858301939283018282801561041457602002820191906000526020600020905b81546001600160a01b031681526001909101906020018083116103f6575b505050505081526020016002820180548060200260200160405190810160405280929190818152602001828054801561046c57602002820191906000526020600020905b815481526020019060010190808311610458575b50505050508152602001600382018054806020026020016040519081016040528092919081815260200182805480156104ce57602002820191906000526020600020905b81546001600160a01b031681526001909101906020018083116104b0575b505050505081526020016004820180548060200260200160405190810160405280929190818152602001828054801561052657602002820191906000526020600020905b815481526020019060010190808311610512575b505050505081526020016005820180548060200260200160405190810160405280929190818152602001828054801561058857602002820191906000526020600020905b81546001600160a01b0316815260019091019060200180831161056a575b5050505050815260200160068201805480602002602001604051908101604052809291908181526020016000905b828210156106225760008481526020908190208301805460408051828502810185019091528181529283018282801561060e57602002820191906000526020600020905b8154815260200190600101908083116105fa575b5050505050815260200190600101906105b6565b50505050815260200160078201805480602002602001604051908101604052809291908181526020016000905b828210156106bb576000848152602090819020830180546040805182850281018501909152818152928301828280156106a757602002820191906000526020600020905b815481526020019060010190808311610693575b50505050508152602001906001019061064f565b50505050815250509080600c0160405180610100016040529081600082015481526020016001820180548060200260200160405190810160405280929190818152602001828054801561073757602002820191906000526020600020905b81546001600160a01b03168152600190910190602001808311610719575b505050505081526020016002820180548060200260200160405190810160405280929190818152602001828054801561078f57602002820191906000526020600020905b81548152602001906001019080831161077b575b50505050508152602001600382018054806020026020016040519081016040528092919081815260200182805480156107f157602002820191906000526020600020905b81546001600160a01b031681526001909101906020018083116107d3575b505050505081526020016004820180548060200260200160405190810160405280929190818152602001828054801561084957602002820191906000526020600020905b815481526020019060010190808311610835575b50505050508152602001600582018054806020026020016040519081016040528092919081815260200182805480156108ab57602002820191906000526020600020905b81546001600160a01b0316815260019091019060200180831161088d575b5050505050815260200160068201805480602002602001604051908101604052809291908181526020016000905b828210156109455760008481526020908190208301805460408051828502810185019091528181529283018282801561093157602002820191906000526020600020905b81548152602001906001019080831161091d575b5050505050815260200190600101906108d9565b50505050815260200160078201805480602002602001604051908101604052809291908181526020016000905b828210156109de576000848152602090819020830180546040805182850281018501909152818152928301828280156109ca57602002820191906000526020600020905b8154815260200190600101908083116109b6575b505050505081526020019060010190610972565b5050505081525050905086565b6109f3612260565b600082815260fb602052604090205482906001600160a01b0316610a2a576040516325a7443960e11b815260040160405180910390fd5b8233600082815260fb602090815260408083206001600160a01b0385168452600a0182529182902082516101008101845281548152600182018054855181860281018601909652808652610d6e95929485810193929190830182828015610aba57602002820191906000526020600020905b81546001600160a01b03168152600190910190602001808311610a9c575b5050505050815260200160028201805480602002602001604051908101604052809291908181526020018280548015610b1257602002820191906000526020600020905b815481526020019060010190808311610afe575b5050505050815260200160038201805480602002602001604051908101604052809291908181526020018280548015610b7457602002820191906000526020600020905b81546001600160a01b03168152600190910190602001808311610b56575b5050505050815260200160048201805480602002602001604051908101604052809291908181526020018280548015610bcc57602002820191906000526020600020905b815481526020019060010190808311610bb8575b5050505050815260200160058201805480602002602001604051908101604052809291908181526020018280548015610c2e57602002820191906000526020600020905b81546001600160a01b03168152600190910190602001808311610c10575b5050505050815260200160068201805480602002602001604051908101604052809291908181526020016000905b82821015610cc857600084815260209081902083018054604080518285028101850190915281815292830182828015610cb457602002820191906000526020600020905b815481526020019060010190808311610ca0575b505050505081526020019060010190610c5c565b50505050815260200160078201805480602002602001604051908101604052809291908181526020016000905b82821015610d6157600084815260209081902083018054604080518285028101850190915281815292830182828015610d4d57602002820191906000526020600020905b815481526020019060010190808311610d39575b505050505081526020019060010190610cf5565b50505050815250506122a6565b15610d8c57604051638890b3b160e01b815260040160405180910390fd5b84610d9685614ff3565b600082815260fb6020526040902060010154815114610dc857604051638b87d9bd60e01b815260040160405180910390fd5b610dd186614ff3565b806040015151816020015151141580610df4575080608001515181606001515114155b80610e0957508060c00151518160a001515114155b80610e1e57508060e00151518160a001515114155b15610e3c57604051630cfce38160e31b815260040160405180910390fd5b610e4587614ff3565b610e4e816122a6565b15610e6c576040516337416bb160e01b815260040160405180910390fd5b610e7689896122d1565b505050505050505050565b610e89612260565b600081815260fb60209081526040808320338452600a01909152812081815590610eb660018301826144db565b610ec46002830160006144db565b610ed26003830160006144db565b610ee06004830160006144db565b610eee6005830160006144db565b610efc6006830160006144f9565b610f0a6007830160006144f9565b50507f095a568c0ecbb2fd37d5ccfb0ce68706be7207f0e54cba928733112ff175e2eb81610f353390565b604080519283526001600160a01b039091166020830152015b60405180910390a150565b306001600160a01b037f0000000000000000000000000000000000000000000000000000000000000000161415610fab5760405162461bcd60e51b8152600401610fa290614e1a565b60405180910390fd5b7f00000000000000000000000000000000000000000000000000000000000000006001600160a01b0316610ff460008051602061542e833981519152546001600160a01b031690565b6001600160a01b03161461101a5760405162461bcd60e51b8152600401610fa290614e66565b611023816126ce565b6040805160008082526020820190925261103f918391906126d6565b50565b306001600160a01b037f000000000000000000000000000000000000000000000000000000000000000016141561108b5760405162461bcd60e51b8152600401610fa290614e1a565b7f00000000000000000000000000000000000000000000000000000000000000006001600160a01b03166110d460008051602061542e833981519152546001600160a01b031690565b6001600160a01b0316146110fa5760405162461bcd60e51b8152600401610fa290614e66565b611103826126ce565b61110f828260016126d6565b5050565b61115b60405180610100016040528060008152602001606081526020016060815260200160608152602001606081526020016060815260200160608152602001606081525090565b600083815260fb602090815260408083206001600160a01b0386168452600a0182529182902082516101008101845281548152600182018054855181860281018601909652808652919492938581019392908301828280156111e657602002820191906000526020600020905b81546001600160a01b031681526001909101906020018083116111c8575b505050505081526020016002820180548060200260200160405190810160405280929190818152602001828054801561123e57602002820191906000526020600020905b81548152602001906001019080831161122a575b50505050508152602001600382018054806020026020016040519081016040528092919081815260200182805480156112a057602002820191906000526020600020905b81546001600160a01b03168152600190910190602001808311611282575b50505050508152602001600482018054806020026020016040519081016040528092919081815260200182805480156112f857602002820191906000526020600020905b8154815260200190600101908083116112e4575b505050505081526020016005820180548060200260200160405190810160405280929190818152602001828054801561135a57602002820191906000526020600020905b81546001600160a01b0316815260019091019060200180831161133c575b5050505050815260200160068201805480602002602001604051908101604052809291908181526020016000905b828210156113f4576000848152602090819020830180546040805182850281018501909152818152928301828280156113e057602002820191906000526020600020905b8154815260200190600101908083116113cc575b505050505081526020019060010190611388565b50505050815260200160078201805480602002602001604051908101604052809291908181526020016000905b8282101561148d5760008481526020908190208301805460408051828502810185019091528181529283018282801561147957602002820191906000526020600020905b815481526020019060010190808311611465575b505050505081526020019060010190611421565b505050508152505090505b92915050565b6000306001600160a01b037f0000000000000000000000000000000000000000000000000000000000000000161461153e5760405162461bcd60e51b815260206004820152603860248201527f555550535570677261646561626c653a206d757374206e6f742062652063616c60448201527f6c6564207468726f7567682064656c656761746563616c6c00000000000000006064820152608401610fa2565b5060008051602061542e83398151915290565b611559612850565b61156360006128aa565b565b604080516020808201979097528082019590955260608501939093526001600160a01b0391821660808501521660a0808401919091528151808403909101815260c09092019052805191012090565b6115bc612260565b600085815260fb602052604090205485906001600160a01b0316156115f457604051632644651560e11b815260040160405180910390fd5b6115fd85614ff3565b806040015151816020015151141580611620575080608001515181606001515114155b8061163557508060c00151518160a001515114155b8061164a57508060e00151518160a001515114155b1561166857604051630cfce38160e31b815260040160405180910390fd5b61167185614ff3565b806040015151816020015151141580611694575080608001515181606001515114155b806116a957508060c00151518160a001515114155b806116be57508060e00151518160a001515114155b156116dc57604051630cfce38160e31b815260040160405180910390fd5b6116e587614ff3565b6116ee816122a6565b1561170c576040516337416bb160e01b815260040160405180910390fd5b61171587614ff3565b61171e816122a6565b1561173c576040516337416bb160e01b815260040160405180910390fd5b60008a815260fb6020526040902080546001600160a01b03191633178155436001820155886002820161176f82826152ff565b5050336000908152600a8201602052604090208a9061178e82826152ff565b5050336000818152600a8301602052604090819020439055517fd0f990c73deb3fea20dcf1e35f942475e884771a9231e0de3588d568ac517980916117d9918e91908c908c90614da0565b60405180910390a1604080518c815233602082015281517f7ba504ea8cc77c3881d6cc4d2f4ea570e54e337bb13b951de04ffb8148a39c9f929181900390910190a15050505050505050505050565b600054610100900460ff16158080156118485750600054600160ff909116105b806118625750303b158015611862575060005460ff166001145b6118c55760405162461bcd60e51b815260206004820152602e60248201527f496e697469616c697a61626c653a20636f6e747261637420697320616c72656160448201526d191e481a5b9a5d1a585b1a5e995960921b6064820152608401610fa2565b6000805460ff1916600117905580156118e8576000805461ff0019166101001790555b6118f06128fc565b6118f8612923565b611900612953565b801561103f576000805461ff0019169055604051600181527f7f26b83ff96e1f2b6a682f133852f6798a09c465da95921460cefb384740249890602001610f4e565b61194a612260565b600082815260fb602052604090205482906001600160a01b0316336001600160a01b03161461198c57604051638c12a05360e01b815260040160405180910390fd5b6119968383612986565b505050565b6119a3612260565b600081815260fb602052604090205481906001600160a01b0316336001600160a01b0316146119e557604051638c12a05360e01b815260040160405180910390fd5b61110f826129d9565b6119f6612260565b600082815260fb602052604090205482906001600160a01b0316611a2d576040516325a7443960e11b815260040160405180910390fd5b8233600082815260fb602090815260408083206001600160a01b0385168452600a0182529182902082516101008101845281548152600182018054855181860281018601909652808652611d6495929485810193929190830182828015611abd57602002820191906000526020600020905b81546001600160a01b03168152600190910190602001808311611a9f575b5050505050815260200160028201805480602002602001604051908101604052809291908181526020018280548015611b1557602002820191906000526020600020905b815481526020019060010190808311611b01575b5050505050815260200160038201805480602002602001604051908101604052809291908181526020018280548015611b7757602002820191906000526020600020905b81546001600160a01b03168152600190910190602001808311611b59575b5050505050815260200160048201805480602002602001604051908101604052809291908181526020018280548015611bcf57602002820191906000526020600020905b815481526020019060010190808311611bbb575b5050505050815260200160058201805480602002602001604051908101604052809291908181526020018280548015611c3157602002820191906000526020600020905b81546001600160a01b03168152600190910190602001808311611c13575b5050505050815260200160068201805480602002602001604051908101604052809291908181526020016000905b82821015611ccb57600084815260209081902083018054604080518285028101850190915281815292830182828015611cb757602002820191906000526020600020905b815481526020019060010190808311611ca3575b505050505081526020019060010190611c5f565b50505050815260200160078201805480602002602001604051908101604052809291908181526020016000905b82821015610d6157600084815260209081902083018054604080518285028101850190915281815292830182828015611d5057602002820191906000526020600020905b815481526020019060010190808311611d3c575b505050505081526020019060010190611cf8565b611d815760405163c2d944a760e01b815260040160405180910390fd5b84611d8b85614ff3565b600082815260fb6020526040902060010154815114611dbd57604051638b87d9bd60e01b815260040160405180910390fd5b611dc686614ff3565b806040015151816020015151141580611de9575080608001515181606001515114155b80611dfe57508060c00151518160a001515114155b80611e1357508060e00151518160a001515114155b15611e3157604051630cfce38160e31b815260040160405180910390fd5b611e3a87614ff3565b611e43816122a6565b15611e61576040516337416bb160e01b815260040160405180910390fd5b604080518a815233602082015281517ffba1ad45cc33aed2e8c4f2c3558e076e3b43d01b218179472de7109107a65f81929181900390910190a1610e7689896122d1565b60fb602090815260009182526040918290208054600182015484516101008101865260028401805482526003850180548851818902810189019099528089526001600160a01b039095169793969294919385840193909290830182828015611f3657602002820191906000526020600020905b81546001600160a01b03168152600190910190602001808311611f18575b5050505050815260200160028201805480602002602001604051908101604052809291908181526020018280548015611f8e57602002820191906000526020600020905b815481526020019060010190808311611f7a575b5050505050815260200160038201805480602002602001604051908101604052809291908181526020018280548015611ff057602002820191906000526020600020905b81546001600160a01b03168152600190910190602001808311611fd2575b505050505081526020016004820180548060200260200160405190810160405280929190818152602001828054801561204857602002820191906000526020600020905b815481526020019060010190808311612034575b50505050508152602001600582018054806020026020016040519081016040528092919081815260200182805480156120aa57602002820191906000526020600020905b81546001600160a01b0316815260019091019060200180831161208c575b5050505050815260200160068201805480602002602001604051908101604052809291908181526020016000905b828210156121445760008481526020908190208301805460408051828502810185019091528181529283018282801561213057602002820191906000526020600020905b81548152602001906001019080831161211c575b5050505050815260200190600101906120d8565b50505050815260200160078201805480602002602001604051908101604052809291908181526020016000905b828210156121dd576000848152602090819020830180546040805182850281018501909152818152928301828280156121c957602002820191906000526020600020905b8154815260200190600101908083116121b5575b505050505081526020019060010190612171565b5050505081525050905083565b6121f2612850565b6001600160a01b0381166122575760405162461bcd60e51b815260206004820152602660248201527f4f776e61626c653a206e6577206f776e657220697320746865207a65726f206160448201526564647265737360d01b6064820152608401610fa2565b61103f816128aa565b60655460ff16156115635760405162461bcd60e51b815260206004820152601060248201526f14185d5cd8589b194e881c185d5cd95960821b6044820152606401610fa2565b600081602001515160001480156122c05750606082015151155b801561149857505060a00151511590565b600082815260fb60209081526040808320338452600a01909152902081906122f982826152ff565b50506040805183815233602082015281517f7ba504ea8cc77c3881d6cc4d2f4ea570e54e337bb13b951de04ffb8148a39c9f929181900390910190a16123478261234283614ff3565b612a9d565b1561110f5761235e61235882614ff3565b33612e32565b80156126bf5750600082815260fb6020908152604080832080546001600160a01b03168452600a01825291829020825161010081018452815481526001820180548551818602810186019096528086526126bf959294858101939291908301828280156123f457602002820191906000526020600020905b81546001600160a01b031681526001909101906020018083116123d6575b505050505081526020016002820180548060200260200160405190810160405280929190818152602001828054801561244c57602002820191906000526020600020905b815481526020019060010190808311612438575b50505050508152602001600382018054806020026020016040519081016040528092919081815260200182805480156124ae57602002820191906000526020600020905b81546001600160a01b03168152600190910190602001808311612490575b505050505081526020016004820180548060200260200160405190810160405280929190818152602001828054801561250657602002820191906000526020600020905b8154815260200190600101908083116124f2575b505050505081526020016005820180548060200260200160405190810160405280929190818152602001828054801561256857602002820191906000526020600020905b81546001600160a01b0316815260019091019060200180831161254a575b5050505050815260200160068201805480602002602001604051908101604052809291908181526020016000905b82821015612602576000848152602090819020830180546040805182850281018501909152818152928301828280156125ee57602002820191906000526020600020905b8154815260200190600101908083116125da575b505050505081526020019060010190612596565b50505050815260200160078201805480602002602001604051908101604052809291908181526020016000905b8282101561269b5760008481526020908190208301805460408051828502810185019091528181529283018282801561268757602002820191906000526020600020905b815481526020019060010190808311612673575b50505050508152602001906001019061262f565b50505091525050600084815260fb60205260409020546001600160a01b0316612e32565b1561110f5761110f8233612986565b61103f612850565b7f4910fdfa16fed3260ed0e7147f7cc6da11a60208b5b9406d12a635614ffd91435460ff161561270957611996836131fc565b826001600160a01b03166352d1902d6040518163ffffffff1660e01b815260040160206040518083038186803b15801561274257600080fd5b505afa925050508015612772575060408051601f3d908101601f1916820190925261276f9181019061498d565b60015b6127d55760405162461bcd60e51b815260206004820152602e60248201527f45524331393637557067726164653a206e657720696d706c656d656e7461746960448201526d6f6e206973206e6f74205555505360901b6064820152608401610fa2565b60008051602061542e83398151915281146128445760405162461bcd60e51b815260206004820152602960248201527f45524331393637557067726164653a20756e737570706f727465642070726f786044820152681a58589b195555525160ba1b6064820152608401610fa2565b50611996838383613298565b6033546001600160a01b031633146115635760405162461bcd60e51b815260206004820181905260248201527f4f776e61626c653a2063616c6c6572206973206e6f7420746865206f776e65726044820152606401610fa2565b603380546001600160a01b038381166001600160a01b0319831681179093556040519116919082907f8be0079c531659141344cd1fd0a4f28419497f9722a3daafe3b4186f6b6457e090600090a35050565b600054610100900460ff166115635760405162461bcd60e51b8152600401610fa290614eb2565b600054610100900460ff1661294a5760405162461bcd60e51b8152600401610fa290614eb2565b611563336128aa565b600054610100900460ff1661297a5760405162461bcd60e51b8152600401610fa290614eb2565b6065805460ff19169055565b600082815260fb60205260409020546129aa9083906001600160a01b0316836132c3565b600082815260fb60205260409020546129cf90839083906001600160a01b03166132c3565b6119e58282613a2d565b600081815260fb6020526040812080546001600160a01b0319168155600181018290556002810182815590919081612a1460038501826144db565b612a226002830160006144db565b612a306003830160006144db565b612a3e6004830160006144db565b612a4c6005830160006144db565b612a5a6006830160006144f9565b612a686007830160006144f9565b505050507ff89b62d5ed31af5007e4f697e3397fd9a3854dfecb25a7dd0c8d3d9bf8bd816881604051610f4e91815260200190565b60008060fb6000858152602001908152602001600020600201604051806101000160405290816000820154815260200160018201805480602002602001604051908101604052809291908181526020018280548015612b2557602002820191906000526020600020905b81546001600160a01b03168152600190910190602001808311612b07575b5050505050815260200160028201805480602002602001604051908101604052809291908181526020018280548015612b7d57602002820191906000526020600020905b815481526020019060010190808311612b69575b5050505050815260200160038201805480602002602001604051908101604052809291908181526020018280548015612bdf57602002820191906000526020600020905b81546001600160a01b03168152600190910190602001808311612bc1575b5050505050815260200160048201805480602002602001604051908101604052809291908181526020018280548015612c3757602002820191906000526020600020905b815481526020019060010190808311612c23575b5050505050815260200160058201805480602002602001604051908101604052809291908181526020018280548015612c9957602002820191906000526020600020905b81546001600160a01b03168152600190910190602001808311612c7b575b5050505050815260200160068201805480602002602001604051908101604052809291908181526020016000905b82821015612d3357600084815260209081902083018054604080518285028101850190915281815292830182828015612d1f57602002820191906000526020600020905b815481526020019060010190808311612d0b575b505050505081526020019060010190612cc7565b50505050815260200160078201805480602002602001604051908101604052809291908181526020016000905b82821015612dcc57600084815260209081902083018054604080518285028101850190915281815292830182828015612db857602002820191906000526020600020905b815481526020019060010190808311612da4575b505050505081526020019060010190612d60565b5050509152505083518152604051909150612deb908290602001614efd565b6040516020818303038152906040528051906020012083604051602001612e129190614efd565b604051602081830303815290604052805190602001201491505092915050565b6000805b836020015151811015612f3f5783604001518181518110612e6757634e487b7160e01b600052603260045260246000fd5b602002602001015184602001518281518110612e9357634e487b7160e01b600052603260045260246000fd5b6020908102919091010151604051636eb1769f60e11b81526001600160a01b0386811660048301523060248301529091169063dd62ed3e9060440160206040518083038186803b158015612ee657600080fd5b505afa158015612efa573d6000803e3d6000fd5b505050506040513d601f19601f82011682018060405250810190612f1e919061498d565b14612f2d576000915050611498565b80612f3781615269565b915050612e36565b5060005b83606001515181101561311257306001600160a01b031684606001518281518110612f7e57634e487b7160e01b600052603260045260246000fd5b60200260200101516001600160a01b031663081812fc86608001518481518110612fb857634e487b7160e01b600052603260045260246000fd5b60200260200101516040518263ffffffff1660e01b8152600401612fde91815260200190565b60206040518083038186803b158015612ff657600080fd5b505afa15801561300a573d6000803e3d6000fd5b505050506040513d601f19601f8201168201806040525081019061302e9190614897565b6001600160a01b0316141580156130f157508360600151818151811061306457634e487b7160e01b600052603260045260246000fd5b602090810291909101015160405163e985e9c560e01b81526001600160a01b0385811660048301523060248301529091169063e985e9c59060440160206040518083038186803b1580156130b757600080fd5b505afa1580156130cb573d6000803e3d6000fd5b505050506040513d601f19601f820116820180604052508101906130ef9190614955565b155b15613100576000915050611498565b8061310a81615269565b915050612f43565b5060005b8360a00151518110156131f2578360a00151818151811061314757634e487b7160e01b600052603260045260246000fd5b602090810291909101015160405163e985e9c560e01b81526001600160a01b0385811660048301523060248301529091169063e985e9c59060440160206040518083038186803b15801561319a57600080fd5b505afa1580156131ae573d6000803e3d6000fd5b505050506040513d601f19601f820116820180604052508101906131d29190614955565b6131e0576000915050611498565b806131ea81615269565b915050613116565b5060019392505050565b6001600160a01b0381163b6132695760405162461bcd60e51b815260206004820152602d60248201527f455243313936373a206e657720696d706c656d656e746174696f6e206973206e60448201526c1bdd08184818dbdb9d1c9858dd609a1b6064820152608401610fa2565b60008051602061542e83398151915280546001600160a01b0319166001600160a01b0392909216919091179055565b6132a183614367565b6000825111806132ae5750805b15611996576132bd83836143a7565b50505050565b600083815260fb602090815260408083206001600160a01b0386168452600a810183528184208251610100810184528154815260018201805485518188028101880190965280865293969591949293858301939283018282801561335057602002820191906000526020600020905b81546001600160a01b03168152600190910190602001808311613332575b50505050508152602001600282018054806020026020016040519081016040528092919081815260200182805480156133a857602002820191906000526020600020905b815481526020019060010190808311613394575b505050505081526020016003820180548060200260200160405190810160405280929190818152602001828054801561340a57602002820191906000526020600020905b81546001600160a01b031681526001909101906020018083116133ec575b505050505081526020016004820180548060200260200160405190810160405280929190818152602001828054801561346257602002820191906000526020600020905b81548152602001906001019080831161344e575b50505050508152602001600582018054806020026020016040519081016040528092919081815260200182805480156134c457602002820191906000526020600020905b81546001600160a01b031681526001909101906020018083116134a6575b5050505050815260200160068201805480602002602001604051908101604052809291908181526020016000905b8282101561355e5760008481526020908190208301805460408051828502810185019091528181529283018282801561354a57602002820191906000526020600020905b815481526020019060010190808311613536575b5050505050815260200190600101906134f2565b50505050815260200160078201805480602002602001604051908101604052809291908181526020016000905b828210156135f7576000848152602090819020830180546040805182850281018501909152818152928301828280156135e357602002820191906000526020600020905b8154815260200190600101908083116135cf575b50505050508152602001906001019061358b565b50505091525050805160018401549192501461362657604051638b87d9bd60e01b815260040160405180910390fd5b60005b816020015151811015613826578160200151818151811061365a57634e487b7160e01b600052603260045260246000fd5b60200260200101516001600160a01b03166323b872dd86308560400151858151811061369657634e487b7160e01b600052603260045260246000fd5b60209081029190910101516040516001600160e01b031960e086901b1681526001600160a01b0393841660048201529290911660248301526044820152606401602060405180830381600087803b1580156136f057600080fd5b505af1158015613704573d6000803e3d6000fd5b505050506040513d601f19601f820116820180604052508101906137289190614955565b508160200151818151811061374d57634e487b7160e01b600052603260045260246000fd5b60200260200101516001600160a01b031663a9059cbb858460400151848151811061378857634e487b7160e01b600052603260045260246000fd5b60200260200101516040518363ffffffff1660e01b81526004016137c19291906001600160a01b03929092168252602082015260400190565b602060405180830381600087803b1580156137db57600080fd5b505af11580156137ef573d6000803e3d6000fd5b505050506040513d601f19601f820116820180604052508101906138139190614955565b508061381e81615269565b915050613629565b5060005b81606001515181101561391c578160600151818151811061385b57634e487b7160e01b600052603260045260246000fd5b60200260200101516001600160a01b03166342842e0e86868560800151858151811061389757634e487b7160e01b600052603260045260246000fd5b60209081029190910101516040516001600160e01b031960e086901b1681526001600160a01b0393841660048201529290911660248301526044820152606401600060405180830381600087803b1580156138f157600080fd5b505af1158015613905573d6000803e3d6000fd5b50505050808061391490615269565b91505061382a565b5060005b8160a0015151811015613a25578160a00151818151811061395157634e487b7160e01b600052603260045260246000fd5b60200260200101516001600160a01b0316632eb2c2d686868560c00151858151811061398d57634e487b7160e01b600052603260045260246000fd5b60200260200101518660e0015186815181106139b957634e487b7160e01b600052603260045260246000fd5b60200260200101516040518563ffffffff1660e01b81526004016139e09493929190614cc8565b600060405180830381600087803b1580156139fa57600080fd5b505af1158015613a0e573d6000803e3d6000fd5b505050508080613a1d90615269565b915050613920565b505050505050565b600082815260fb6020526040812080546001909101546001600160a01b0390911691613a5c8583438688611565565b90506040518060c00160405280846001600160a01b03168152602001856001600160a01b0316815260200183815260200186815260200160fb6000888152602001908152602001600020600a016000866001600160a01b03166001600160a01b03168152602001908152602001600020604051806101000160405290816000820154815260200160018201805480602002602001604051908101604052809291908181526020018280548015613b3b57602002820191906000526020600020905b81546001600160a01b03168152600190910190602001808311613b1d575b5050505050815260200160028201805480602002602001604051908101604052809291908181526020018280548015613b9357602002820191906000526020600020905b815481526020019060010190808311613b7f575b5050505050815260200160038201805480602002602001604051908101604052809291908181526020018280548015613bf557602002820191906000526020600020905b81546001600160a01b03168152600190910190602001808311613bd7575b5050505050815260200160048201805480602002602001604051908101604052809291908181526020018280548015613c4d57602002820191906000526020600020905b815481526020019060010190808311613c39575b5050505050815260200160058201805480602002602001604051908101604052809291908181526020018280548015613caf57602002820191906000526020600020905b81546001600160a01b03168152600190910190602001808311613c91575b5050505050815260200160068201805480602002602001604051908101604052809291908181526020016000905b82821015613d4957600084815260209081902083018054604080518285028101850190915281815292830182828015613d3557602002820191906000526020600020905b815481526020019060010190808311613d21575b505050505081526020019060010190613cdd565b50505050815260200160078201805480602002602001604051908101604052809291908181526020016000905b82821015613de257600084815260209081902083018054604080518285028101850190915281815292830182828015613dce57602002820191906000526020600020905b815481526020019060010190808311613dba575b505050505081526020019060010190613d76565b505050915250508152600087815260fb602090815260408083206001600160a01b038a168452600a01825291829020825161010081018452815481526001820180548551818602810186019096528086529584019591949293858101939290830182828015613e7a57602002820191906000526020600020905b81546001600160a01b03168152600190910190602001808311613e5c575b5050505050815260200160028201805480602002602001604051908101604052809291908181526020018280548015613ed257602002820191906000526020600020905b815481526020019060010190808311613ebe575b5050505050815260200160038201805480602002602001604051908101604052809291908181526020018280548015613f3457602002820191906000526020600020905b81546001600160a01b03168152600190910190602001808311613f16575b5050505050815260200160048201805480602002602001604051908101604052809291908181526020018280548015613f8c57602002820191906000526020600020905b815481526020019060010190808311613f78575b5050505050815260200160058201805480602002602001604051908101604052809291908181526020018280548015613fee57602002820191906000526020600020905b81546001600160a01b03168152600190910190602001808311613fd0575b5050505050815260200160068201805480602002602001604051908101604052809291908181526020016000905b828210156140885760008481526020908190208301805460408051828502810185019091528181529283018282801561407457602002820191906000526020600020905b815481526020019060010190808311614060575b50505050508152602001906001019061401c565b50505050815260200160078201805480602002602001604051908101604052809291908181526020016000905b828210156141215760008481526020908190208301805460408051828502810185019091528181529283018282801561410d57602002820191906000526020600020905b8154815260200190600101908083116140f9575b5050505050815260200190600101906140b5565b505050915250509052600082815260fc6020908152604091829020835181546001600160a01b039182166001600160a01b031991821617835585840151600184018054919093169116179055918301516002830155606083015160038301556080830151805160048401908155818301518051929391926141a89260058701920190614517565b50604082015180516141c491600284019160209091019061457c565b50606082015180516141e0916003840191602090910190614517565b50608082015180516141fc91600484019160209091019061457c565b5060a08201518051614218916005840191602090910190614517565b5060c082015180516142349160068401916020909101906145b7565b5060e082015180516142509160078401916020909101906145b7565b50505060a08201518051600c8301908155602080830151805161427992600d8701920190614517565b506040820151805161429591600284019160209091019061457c565b50606082015180516142b1916003840191602090910190614517565b50608082015180516142cd91600484019160209091019061457c565b5060a082015180516142e9916005840191602090910190614517565b5060c082015180516143059160068401916020909101906145b7565b5060e082015180516143219160078401916020909101906145b7565b5050509050507f8a95a3109c05ad2fbfd024c5d680ae9c9e002d76d6ed4cd7efa87867a391b55c8160405161435891815260200190565b60405180910390a15050505050565b614370816131fc565b6040516001600160a01b038216907fbc7cd75a20ee27fd9adebab32041f755214dbc6bffa90cc0225b39da2e5c2d3b90600090a250565b60606001600160a01b0383163b61440f5760405162461bcd60e51b815260206004820152602660248201527f416464726573733a2064656c65676174652063616c6c20746f206e6f6e2d636f6044820152651b9d1c9858dd60d21b6064820152608401610fa2565b600080846001600160a01b03168460405161442a9190614cac565b600060405180830381855af49150503d8060008114614465576040519150601f19603f3d011682016040523d82523d6000602084013e61446a565b606091505b5091509150614492828260405180606001604052806027815260200161544e6027913961449b565b95945050505050565b606083156144aa5750816144d4565b8251156144ba5782518084602001fd5b8160405162461bcd60e51b8152600401610fa29190614de7565b9392505050565b508054600082559060005260206000209081019061103f9190614610565b508054600082559060005260206000209081019061103f9190614625565b82805482825590600052602060002090810192821561456c579160200282015b8281111561456c57825182546001600160a01b0319166001600160a01b03909116178255602090920191600190910190614537565b50614578929150614610565b5090565b82805482825590600052602060002090810192821561456c579160200282015b8281111561456c57825182559160200191906001019061459c565b828054828255906000526020600020908101928215614604579160200282015b8281111561460457825180516145f491849160209091019061457c565b50916020019190600101906145d7565b50614578929150614625565b5b808211156145785760008155600101614611565b8082111561457857600061463982826144db565b50600101614625565b600082601f830112614652578081fd5b8135602061466761466283614fba565b614f89565b80838252828201915082860187848660051b8901011115614686578586fd5b855b858110156146c757813567ffffffffffffffff8111156146a6578788fd5b6146b48a87838c0101614806565b8552509284019290840190600101614688565b5090979650505050505050565b600082601f8301126146e4578081fd5b813560206146f461466283614fba565b80838252828201915082860187848660051b8901011115614713578586fd5b855b858110156146c757813561472881615418565b84529284019290840190600101614715565b600082601f83011261474a578081fd5b8135602061475a61466283614fba565b80838252828201915082860187848660051b8901011115614779578586fd5b855b858110156146c757813561478e81615418565b8452928401929084019060010161477b565b600082601f8301126147b0578081fd5b813560206147c061466283614fba565b80838252828201915082860187848660051b89010111156147df578586fd5b855b858110156146c75781356147f481615418565b845292840192908401906001016147e1565b600082601f830112614816578081fd5b8135602061482661466283614fba565b80838252828201915082860187848660051b8901011115614845578586fd5b855b858110156146c757813584529284019290840190600101614847565b60006101008284031215614875578081fd5b50919050565b60006020828403121561488c578081fd5b81356144d481615418565b6000602082840312156148a8578081fd5b81516144d481615418565b600080604083850312156148c5578081fd5b82356148d081615418565b915060208381013567ffffffffffffffff808211156148ed578384fd5b818601915086601f830112614900578384fd5b81358181111561491257614912615290565b614924601f8201601f19168501614f89565b91508082528784828501011115614939578485fd5b8084840185840137810190920192909252919491935090915050565b600060208284031215614966578081fd5b815180151581146144d4578182fd5b600060208284031215614986578081fd5b5035919050565b60006020828403121561499e578081fd5b5051919050565b600080604083850312156149b7578182fd5b8235915060208301356149c981615418565b809150509250929050565b600080604083850312156149e6578182fd5b82359150602083013567ffffffffffffffff811115614a03578182fd5b614a0f85828601614863565b9150509250929050565b600080600080600060808688031215614a30578081fd5b85359450602086013567ffffffffffffffff80821115614a4e578283fd5b614a5a89838a01614863565b95506040880135915080821115614a6f578283fd5b614a7b89838a01614863565b94506060880135915080821115614a90578283fd5b818801915088601f830112614aa3578283fd5b813581811115614ab1578384fd5b896020828501011115614ac2578384fd5b9699959850939650602001949392505050565b600080600080600060a08688031215614aec578283fd5b8535945060208601359350604086013592506060860135614b0c81615418565b91506080860135614b1c81615418565b809150509295509295909350565b600081518084526020808501808196508360051b81019150828601855b85811015614b71578284038952614b5f848351614bc1565b98850198935090840190600101614b47565b5091979650505050505050565b6000815180845260208085019450808401835b83811015614bb65781516001600160a01b031687529582019590820190600101614b91565b509495945050505050565b6000815180845260208085019450808401835b83811015614bb657815187529582019590820190600101614bd4565b6000610100825184526020830151816020860152614c1082860182614b7e565b91505060408301518482036040860152614c2a8282614bc1565b91505060608301518482036060860152614c448282614b7e565b91505060808301518482036080860152614c5e8282614bc1565b91505060a083015184820360a0860152614c788282614b7e565b91505060c083015184820360c0860152614c928282614b2a565b91505060e083015184820360e08601526144928282614b2a565b60008251614cbe81846020870161523d565b9190910192915050565b6001600160a01b0385811682528416602082015260a060408201819052600090614cf490830185614bc1565b8281036060840152614d068185614bc1565b838103608090940193909352508152602001949350505050565b6001600160a01b03878116825286166020820152604081018590526060810184905260c060808201819052600090614d5a90830185614bf0565b82810360a0840152614d6c8185614bf0565b9998505050505050505050565b60018060a01b03841681528260208201526060604082015260006144926060830184614bf0565b8481526001600160a01b03841660208201526060604082018190528101829052818360808301376000818301608090810191909152601f909201601f191601019392505050565b6020815260008251806020840152614e0681604085016020870161523d565b601f01601f19169190910160400192915050565b6020808252602c908201527f46756e6374696f6e206d7573742062652063616c6c6564207468726f7567682060408201526b19195b1959d85d1958d85b1b60a21b606082015260800190565b6020808252602c908201527f46756e6374696f6e206d7573742062652063616c6c6564207468726f7567682060408201526b6163746976652070726f787960a01b606082015260800190565b6020808252602b908201527f496e697469616c697a61626c653a20636f6e7472616374206973206e6f74206960408201526a6e697469616c697a696e6760a81b606082015260800190565b6020815260006144d46020830184614bf0565b6000808335601e19843603018112614f26578283fd5b83018035915067ffffffffffffffff821115614f40578283fd5b6020019150600581901b3603821315614f5857600080fd5b9250929050565b604051610100810167ffffffffffffffff81118282101715614f8357614f83615290565b60405290565b604051601f8201601f1916810167ffffffffffffffff81118282101715614fb257614fb2615290565b604052919050565b600067ffffffffffffffff821115614fd457614fd4615290565b5060051b60200190565b5b8181101561110f5760008155600101614fdf565b60006101008236031215615005578081fd5b61500d614f5f565b82358152602083013567ffffffffffffffff8082111561502b578384fd5b6150373683870161473a565b6020840152604085013591508082111561504f578384fd5b61505b36838701614806565b60408401526060850135915080821115615073578384fd5b61507f368387016147a0565b60608401526080850135915080821115615097578384fd5b6150a336838701614806565b608084015260a08501359150808211156150bb578384fd5b6150c7368387016146d4565b60a084015260c08501359150808211156150df578384fd5b6150eb36838701614642565b60c084015260e0850135915080821115615103578384fd5b5061511036828601614642565b60e08301525092915050565b600160401b83111561513057615130615290565b80548382558084101561516c576000828152602090208481019082015b808210156151695761515e826152a6565b60018201915061514d565b50505b5060008181526020812083915b85811015613a255761518b8386614f10565b615196818386615209565b50506020929092019160019182019101615179565b6151b583826152c7565b818160005260208060002060005b868110156152005783356151d681615418565b82546001600160a01b0319166001600160a01b0382161783555092820192600191820191016151c3565b50505050505050565b61521383826152c7565b818160005260208060002060005b8681101561520057833582559282019260019182019101615221565b60005b83811015615258578181015183820152602001615240565b838111156132bd5750506000910152565b600060001982141561528957634e487b7160e01b81526011600452602481fd5b5060010190565b634e487b7160e01b600052604160045260246000fd5b805460008255801561110f5781600052602060002061199682820182614fde565b600160401b8211156152db576152db615290565b805482825580831015611996578160005260206000206132bd828201858301614fde565b813581556001808201602061531681860186614f10565b61532081856152c7565b6000938452828420935b8181101561536657823561533d81615418565b85546001600160a01b0319166001600160a01b038216178655509385019391830191850161532a565b5050505050506153796040830183614f10565b615387818360028601615209565b50506153966060830183614f10565b6153a48183600386016151ab565b50506153b36080830183614f10565b6153c1818360048601615209565b50506153d060a0830183614f10565b6153de8183600586016151ab565b50506153ed60c0830183614f10565b6153fb81836006860161511c565b505061540a60e0830183614f10565b6132bd81836007860161511c565b6001600160a01b038116811461103f57600080fdfe360894a13ba1a3210667c828492db98dca3e2076cc3735a920a3ca505d382bbc416464726573733a206c6f772d6c6576656c2064656c65676174652063616c6c206661696c6564a2646970667358221220edb6d5072a5cdd4086c352e5f6de333fd914822e9cebe92bd6b7426ec39dca1464736f6c63430008040033",
  "linkReferences": {},
  "deployedLinkReferences": {}
}